{
  "contractName": "Adoption",
  "abi": [
    {
      "constant": true,
      "inputs": [
        {
          "name": "",
          "type": "uint256"
        }
      ],
      "name": "adopters",
      "outputs": [
        {
          "name": "",
          "type": "address"
        }
      ],
      "payable": false,
      "stateMutability": "view",
      "type": "function"
    },
    {
      "constant": false,
      "inputs": [
        {
          "name": "petId",
          "type": "uint256"
        }
      ],
      "name": "adopt",
      "outputs": [
        {
          "name": "",
          "type": "uint256"
        }
      ],
      "payable": false,
      "stateMutability": "nonpayable",
      "type": "function"
    },
    {
      "constant": false,
      "inputs": [
        {
          "name": "petId",
          "type": "uint256"
        }
      ],
      "name": "abandon",
      "outputs": [
        {
          "name": "",
          "type": "uint256"
        }
      ],
      "payable": false,
      "stateMutability": "nonpayable",
      "type": "function"
    },
    {
      "constant": true,
      "inputs": [],
      "name": "getAdopters",
      "outputs": [
        {
          "name": "",
          "type": "address[16]"
        }
      ],
      "payable": false,
      "stateMutability": "view",
      "type": "function"
    }
  ],
  "bytecode": "0x6060604052341561000f57600080fd5b6103fe8061001e6000396000f300606060405260043610610062576000357c0100000000000000000000000000000000000000000000000000000000900463ffffffff1680633de4eb171461006757806343ae80d3146100b85780638588b2c51461011b578063e0d217f214610152575b600080fd5b341561007257600080fd5b61007a610189565b6040518082601060200280838360005b838110156100a557808201518184015260208101905061008a565b5050505090500191505060405180910390f35b34156100c357600080fd5b6100d9600480803590602001909190505061020a565b604051808273ffffffffffffffffffffffffffffffffffffffff1673ffffffffffffffffffffffffffffffffffffffff16815260200191505060405180910390f35b341561012657600080fd5b61013c600480803590602001909190505061023f565b6040518082815260200191505060405180910390f35b341561015d57600080fd5b61017360048080359060200190919050506102b4565b6040518082815260200191505060405180910390f35b610191610393565b6000601080602002604051908101604052809291908260108015610200576020028201915b8160009054906101000a900473ffffffffffffffffffffffffffffffffffffffff1673ffffffffffffffffffffffffffffffffffffffff16815260200190600101908083116101b6575b5050505050905090565b60008160108110151561021957fe5b016000915054906101000a900473ffffffffffffffffffffffffffffffffffffffff1681565b60008082101580156102525750600f8211155b151561025d57600080fd5b3360008360108110151561026d57fe5b0160006101000a81548173ffffffffffffffffffffffffffffffffffffffff021916908373ffffffffffffffffffffffffffffffffffffffff160217905550819050919050565b60008082101580156102c75750600f8211155b15156102d257600080fd5b3373ffffffffffffffffffffffffffffffffffffffff166000836010811015156102f857fe5b0160009054906101000a900473ffffffffffffffffffffffffffffffffffffffff1673ffffffffffffffffffffffffffffffffffffffff1614151561033c57600080fd5b6000808360108110151561034c57fe5b0160006101000a81548173ffffffffffffffffffffffffffffffffffffffff021916908373ffffffffffffffffffffffffffffffffffffffff160217905550819050919050565b610200604051908101604052806010905b600073ffffffffffffffffffffffffffffffffffffffff168152602001906001900390816103a457905050905600a165627a7a72305820f014d52ca01c15bea0a0e9f03c34f43017fa588edf3bbd116215106d2dc83fb40029",
  "source": "pragma solidity ^0.4.17; // minimum version of solidity to use\n\ncontract Adoption {\n    address[16] public adopters; // an array of ethereum addresses\n\n    function adopt(uint petId) public returns (uint) {\n        require(petId >= 0 && petId <= 15);\n        adopters[petId] = msg.sender;\n        return petId;\n    }\n\n    function abandon(uint petId) public returns (uint) {\n        require(petId >= 0 && petId <= 15);\n        require(adopters[petId] == msg.sender);\n        adopters[petId] = 0x0000000000000000000000000000000000000000;\n        return petId;\n    }\n\n    function getAdopters() public view returns (address[16]) {\n        return adopters;\n    }\n}",
  "sourcePath": "/Users/jo/Desktop/web_apps/pet-shop-tutorial/contracts/Adoption.sol",
  "compiler": {
    "name": "solc",
    "version": "0.4.19+commit.c4cbbb05.Emscripten.clang"
  },
  "schemaVersion": "1.0.1",
  "updatedAt": "2018-02-11T07:21:17.002Z"
}